:080000000C94D9000C940000DF
:100008000C9400000C9400000C9400000C94000068
:100018000C9400000C9400000C9400000C94000058
:100028000C9400000C9400000C9400000C94000048
:100038000C9400000C9400000C9400000C94000038
:100048000C9400000C9400000C9400001027E803A6
:1000580064000A0001000010000110000100000007
:1000680028000001020304050607080910111213ED
:100078001415161718192021222324252627282984
:1000880030313233343536373839400053696C6192
:10009800686B616E20556B757200537568752074B6
:1000A800756275686D75210057656C636F6D652C99
:1000B8002073696C61682D006B616E206D617375CA
:1000C8006B203A2029004D616166206B616D7520B7
:1000D800746964616B006469697A696E6B616E202A
:1000E8006D6173756B00436865636B207570206B79
:1000F80065206B6C692D006E696B2079616E6720D5
:100108007465727365646961002564005375687568
:10011800207475627568206B616D7520004300540A
:10012800656C6168206D656E63617061690062610C
:10013800746173206D617821000001002D4E414EDD
:1001480000494E46000080C00400040066002900F3
:1001580022036A000E00600294000E006E02A200E4
:1001680010007C02B0000E008C02C00010009A0241
:10017800CE001000AA02DE001100BA02EE00120042
:10018800CB02FF001100DD0214010200EE0225017E
:100198000F00F00227010B00FF02360101004B039C
:1001A800420102004F034E010000F894EE27ECBB19
:1001B800F1E0FBBFEBBFE5BF8DE0A2E0BB27ED930D
:1001C8008A95E9F780E098E0A0E6ED930197E9F7D2
:1001D800E0E5F1E085919591009761F0A591B591E1
:1001E80005901590BF01F00105900D920197E1F778
:1001F800FB01F0CFEFE5EDBFE8E0EEBFC0E6D2E0EF
:100208000C94D5011A931A2FE12FE06CE7B98BE112
:100218008A95F1F7369A349BFECF349AE4B1F5B15A
:100228000C94CB021A930A930A2F10E0101740F48B
:10023800979A0E94900497980E9490041F5FF6CFA7
:10024800099119910895A0E0DDDFAAE0B3E06627DF
:1002580077270E9487050E940E050895A0910A033A
:10026800B0910B0380910C0390910D03E0E0F0E056
:1002780060EA7BE30E94B405A0E0B0E088EC92E479
:100288000E94B405E0930E03F0930F0360931003EC
:100298007093110308950E949404A0E6B2E00E94AE
:1002A8009B04AEE6B2E059C0DC9AA1E0BBDF0E9435
:1002B8009404ACE7B2E00E949B04ACE8B2E00E9470
:1002C800A2040895DD9AA3E0ADDF0E949404AAE990
:1002D800B2E00E949B04AAEAB2E00E94A2040E9433
:1002E8009404AAEBB2E00E949B04ABECB2E00E943B
:1002F800A204DD9808950E941C05E2E1F3E0FA9358
:10030800EA93E1E1F1E0FA93EA93EC81FD816E81F1
:100318007F810E9450050E9405050E94170584E010
:100328000E94410428960E949404ADEDB2E00E9418
:100338009B04A2E1B3E00E948D02AFED0E94790216
:10034800AEEEB2E00E948D02F3C00E949404A0EFCA
:10035800B2E00E949B04AFEFB2E00E948D020895C4
:100368000E94A8040895DB9AACE2B1E00E9422063C
:10037800DB98089544245524E0E0E0930A03E093D1
:100388000B03E0930C03E0930D03E0930E03E0935B
:100398000F03E0931003E09311030E94A8047BDF8E
:1003A8000895E6E0EBBBE8E3EABBE0E0E8BBEFEF8B
:1003B800E7BBE0E0E5BBEFEFE4BBE0E0E2BBE0E891
:1003C800E1BBE0E0E3BFE2BFECBFEFBDEEBDEDBDDA
:1003D800ECBDE7BDE6BDEBBDEABDE9BDE8BDE2BDEC
:1003E800E5BDE4BDE3BDE5BFE4BFE9BFEAB9E8B9EF
:1003F800E0BFE0ECE7B9E4E8E6B9E0E0EDB9E6BF74
:10040800A0E10E949E02C99BB5DFCA992CC01BDFE0
:1004180025DF41DF6414750411F497DF24C00E94BE
:10042800AF0469DFA0EDB7E00E9422060E94AF0486
:10043800E0E0F0E068E172E40E94020611F008F0E2
:1004480010C0F20131962F012FDF8ADF8CDFDC9894
:100458000E9490046414750411F477DF01C01BDF57
:1004680002C030DF18DFCFCFFFCF1A931A2FE5B3C2
:10047800EF70AE2FE12FE07FEA2BE5BB8DE08A9588
:10048800F1F7AA9A8DE08A95F1F7AA988DE08A95F6
:10049800F1F77DC0AA93A881E8DFE881E295E883B7
:1004A800A881E3DF85E88A95F1F7219608951A93E4
:1004B8000A931A2F0A81E12FF0E0E15BFC4FE081FB
:1004C800E00FAE2FE7DF902E812E19810881239649
:1004D8000895A2E00E94B804ACE0DCDFA1E00E942D
:1004E800B804E0E08E2E9E2E08951A931A2F1A3023
:1004F80011F09B1440F0E0E0EA938394A82DD7DF35
:100508001A3009F444C09394A89AA12FC3DFA8987D
:100518003EC00E94E5049D01D9012F5F3F4FEC9139
:100528001E2FE03019F0A12FE0DFF6CF0E94EC0477
:10053800249608951A931A2FE4B3E06FE4BBA29AA5
:10054800A09AA19AAA98A898A998B12EE12FE05844
:10055800E0935103E12FE054E0935203A4E1B0E0AB
:100568000E9422060E94BE040E94BE040E94BE048D
:10057800A0E27BDF88EC90E00197F1F7A8E28ADF40
:10058800A4E088DFA5E886DFA6E084DFA2DF199172
:1005980008950E94E3049D015E8112960E940A0557
:1005A800309731F1D90114960E940A058F013097CE
:1005B80059F00230E0E01E0780F0F80131978F0112
:1005C800D9011496ED93FC93D9011296ED91FD9102
:1005D8003196FE93EE9331975083D9010E940A0514
:1005E800FF232AF0ED91FD913196FE93EE9305C01D
:1005F800D901EFEFFFEFED93FC930E94EA042796F1
:100608000895BA93AA9326970E94E30410E0AC8554
:10061800BD85E0E0F0E0ED93FC93EA89FB89319633
:10062800EA8BFB8B3197E4912E2FE03009F41DC142
:10063800E12FE03039F4253211F411E002C00E94B4
:10064800C60412C1E130A9F4253219F40E94C60487
:100658000AC112E040E000E02D3211F401E004C1CB
:100668002B3211F44BE200C1203211F440E2FCC0FD
:1006780002C0E23039F450E013E0203311F400688E
:10068800F3C003C0E33009F0EFC0203310F02A3381
:1006980008F007C0AAE05A9F502DE22FE0535E0FE2
:1006A800E3C0E22FE33649F40E94CD04E889F989D2
:1006B800A481AA930E94D304D6C0E33741F40E94D0
:1006C800CD040E94D9040E9477041E2F0AC0E03787
:1006D80061F40E94CD040E94D9040E9483041E2F55
:1006E800086002600F7730E03CC0E43611F0E9366C
:1006F80011F4046002C0E53731F4E4E5F0E0EE837C
:10070800FF8315E00CC0E83511F4086003C0E83732
:1007180009F0A9C0EEE5F0E0EE83FF8314E002FFE4
:1007280017C00E94CD04A889B9891496ED91FD914E
:10073800EA87FB87AB85AA232AF40E94F904EA8793
:10074800FB874DE2403011F01F5F01C00B7F09C0ED
:100758000E94CD04A889B98914960E940A05EA87DF
:10076800FB8700FD11C0151778F407FF08C002FFCA
:1007780004C00B7F242F115001C020E301C020E2E8
:100788000E94C6045150EFCF312F01FF17C03030FF
:10079800A1F003FF06C0EE81FF812591EE83FF8360
:1007A80005C0AE81BF812D91AE83BF830E94C60470
:1007B800503009F051503150EACF4BC020E3EE8160
:1007C800FF810E941305E887F987EE81FF81329641
:1007D800EE83FF83E885F985AA85BB85AE17BF0739
:1007E80050F02F5FA885B985EA85FB85EA1BFB0BCE
:1007F800EA87FB87EFCF2A3328F003FF02C0295F7F
:1008080001C0295D04FD1AC0213320F4A885B985EB
:10081800119709F409C0531710F000FF01C013C065
:1008280020E207FF0BC020E3006102FF07C00B7F37
:100838004A930E94D304503009F051500E94C604D4
:10084800503009F051503150A885B985129708F0F9
:10085800B5CF00FF08C0503031F05150E0E2EA93C4
:100868000E94D304F8CF10E0D8CEAC85BD85ED91B9
:10087800FD910E94EA0464960895FF92F82E269747
:100888000E94E304FE010E94F10446855785042E68
:10089800052A19F4EFEFFFEF21C0DE0118960E9438
:1008A800F5048D0148875987E0E0EA87EB87DE0188
:1008B8001C960E94F504ED91FD91FA93EA931A9320
:1008C8000A93EDECF2E0FA93EA93DE011C9699DEC6
:1008D8009F01A885B985E0E0EC93F9010E94EA043C
:1008E8002C96FF900895BA93AA93A991B991EE27EF
:1008F800FF276D91662311F03196FBCF0895BA93C7
:10090800AA93AA27BB27E991F9910590002011F035
:100918001196FBCFFD010895A4E6B0E00C942206E1
:100928000E946D02E0E0EA93A0E00C945B020E9452
:100938008D02E0E0EA93A1E00C945B020E948D0234
:10094800A8EEB3E00C942206A2E2B3E0A40DB51D14
:10095800EC91E8BB0895A0910E03B0910F0380912C
:1009680010039091110308950E944E02A3E0B0E095
:100978000C942206A0E30E94390288EC90E00197CB
:10098800F1F708952A93AD85BE85EF85F889099515
:100998000895E889F9893497E88BF98B0895AD852E
:1009A800BE85EF85F88909950895A889B9891496AF
:1009B800ED91FD91EE83FF83AE81BF8108955A9337
:1009C8004A933A932A931A930A9308955D814C8126
:1009D8003B812A811981088108950024EF0DF01DBB
:1009E80008950024AF0DB01D0895F195E195F040EC
:1009F8000895F09560957095E195FF4F6F4F7F4F83
:100A080008956F2F660F660B762F0895ED91FC9170
:100A180011970895ED93FD936D937C930895059038
:100A2800F491E02D08957A936A93FA93EA930895DE
:100A38009A938A93BA93AA930895552342F4503807
:100A480011F4E0FF04C03196691F791F6BF050E87C
:100A5800572711F45F9373C05F3F31F0660F000CA6
:100A680057956795752F08955F9300200AF072C017
:100A78006BC050E8192E1522880F991F9527550F1E
:100A8800879550E8072E0522660F771F7527550FA3
:100A980067950895689401C0E8945F93F2DF703811
:100AA80018F07F3F08F44BC056E1571BAAF4519544
:100AB80058300EF4593030F0EFEFFFEF6FEF7FE76B
:100AC80077F91AC077275523B9F0EE0FFF1F661F75
:100AD800771F5A95D1F710C07727583028F0EF2F95
:100AE800F62F672F5850F9CF552331F07695679533
:100AF800F795E7955A95D1F700200AF47ADF5F91C8
:100B08000895689401C0E894309760407040B1F04F
:100B1800002426F0772312F400946BDF172E7EE171
:100B2800112032F07A95EE0FFF1F661F111CF9CFC6
:100B3800EF2FF62F612D5F938ADF5F910895EE27DF
:100B4800FF27BF015F910895EFEFFFEF6FE77FEF9A
:100B58005F910895EFEFFFEF6FE77FE75F910895EB
:100B68005F9387DF703859F3903849F3012408946C
:100B7800791F23F424F300203AF3ECCF0F921F934C
:100B88002F933F934F93112722279927689FA001FE
:100B98008F9F302D410D591F6B9F300D411D591FDF
:100BA8008E9F27D0BF9F25D06A9F23D0BE9F1DD080
:100BB800AF9F1BD0AE9F110D291F391F491F591F09
:100BC800E32FF42F652F522F4F913F912F911F91B3
:100BD8000F9066232AF0550FEE1FFF1F661F02C0F5
:100BE80073954BF22ADF5F910895100D211D391F6F
:100BF80002C0200D311D491F591F089599239AF0ED
:100C0800772342F0971748F029F4AE17BF078607F5
:100C180020F031F098948894089598940894089551
:100C28001894889408957723C2F7971798F3A9F72B
:100C3800EA17FB07680788F399F3ECCF109639F0A9
:100C4800A89580ED97E00197F1F71197C9F70895F6
:00000001FF
